{
  "contractName": "Satellites",
  "abi": [
    {
      "constant": true,
      "inputs": [
        {
          "internalType": "uint256",
          "name": "",
          "type": "uint256"
        }
      ],
      "name": "sat",
      "outputs": [
        {
          "internalType": "uint256",
          "name": "id",
          "type": "uint256"
        },
        {
          "internalType": "string",
          "name": "name",
          "type": "string"
        },
        {
          "internalType": "string",
          "name": "longitude",
          "type": "string"
        },
        {
          "internalType": "string",
          "name": "latitude",
          "type": "string"
        },
        {
          "internalType": "string",
          "name": "elevation",
          "type": "string"
        },
        {
          "internalType": "string",
          "name": "azimuth",
          "type": "string"
        },
        {
          "internalType": "string",
          "name": "timestamp",
          "type": "string"
        }
      ],
      "payable": false,
      "stateMutability": "view",
      "type": "function"
    },
    {
      "constant": false,
      "inputs": [
        {
          "internalType": "uint256",
          "name": "_address",
          "type": "uint256"
        },
        {
          "internalType": "uint256",
          "name": "id_",
          "type": "uint256"
        },
        {
          "internalType": "string",
          "name": "name_",
          "type": "string"
        },
        {
          "internalType": "string",
          "name": "longitude_",
          "type": "string"
        },
        {
          "internalType": "string",
          "name": "latitude_",
          "type": "string"
        },
        {
          "internalType": "string",
          "name": "elevation_",
          "type": "string"
        },
        {
          "internalType": "string",
          "name": "azimuth_",
          "type": "string"
        },
        {
          "internalType": "string",
          "name": "timestamp_",
          "type": "string"
        }
      ],
      "name": "set",
      "outputs": [],
      "payable": false,
      "stateMutability": "nonpayable",
      "type": "function"
    },
    {
      "constant": true,
      "inputs": [],
      "name": "get",
      "outputs": [
        {
          "internalType": "uint256",
          "name": "",
          "type": "uint256"
        },
        {
          "internalType": "string",
          "name": "",
          "type": "string"
        },
        {
          "internalType": "string",
          "name": "",
          "type": "string"
        },
        {
          "internalType": "string",
          "name": "",
          "type": "string"
        },
        {
          "internalType": "string",
          "name": "",
          "type": "string"
        },
        {
          "internalType": "string",
          "name": "",
          "type": "string"
        },
        {
          "internalType": "string",
          "name": "",
          "type": "string"
        }
      ],
      "payable": false,
      "stateMutability": "view",
      "type": "function"
    }
  ],
  "bytecode": "0x608060405234801561001057600080fd5b50610f6f806100206000396000f3fe608060405234801561001057600080fd5b50600436106100415760003560e01c80636d4ce63c14610046578063a4a278021461006a578063d3266711146100a0575b600080fd5b61004e6100bc565b6040516100619796959493929190610d06565b60405180910390f35b610084600480360361007f9190810190610b1a565b61051a565b6040516100979796959493929190610d9f565b60405180910390f35b6100ba60048036036100b59190810190610b43565b6108ec565b005b600060608060608060608060008080815260200190815260200160002060000154600080808152602001908152602001600020600101600080808152602001908152602001600020600301600080808152602001908152602001600020600301600080808152602001908152602001600020600401600080808152602001908152602001600020600501600080808152602001908152602001600020600601858054600181600116156101000203166002900480601f0160208091040260200160405190810160405280929190818152602001828054600181600116156101000203166002900480156101f05780601f106101c5576101008083540402835291602001916101f0565b820191906000526020600020905b8154815290600101906020018083116101d357829003601f168201915b50505050509550848054600181600116156101000203166002900480601f01602080910402602001604051908101604052809291908181526020018280546001816001161561010002031660029004801561028c5780601f106102615761010080835404028352916020019161028c565b820191906000526020600020905b81548152906001019060200180831161026f57829003601f168201915b50505050509450838054600181600116156101000203166002900480601f0160208091040260200160405190810160405280929190818152602001828054600181600116156101000203166002900480156103285780601f106102fd57610100808354040283529160200191610328565b820191906000526020600020905b81548152906001019060200180831161030b57829003601f168201915b50505050509350828054600181600116156101000203166002900480601f0160208091040260200160405190810160405280929190818152602001828054600181600116156101000203166002900480156103c45780601f10610399576101008083540402835291602001916103c4565b820191906000526020600020905b8154815290600101906020018083116103a757829003601f168201915b50505050509250818054600181600116156101000203166002900480601f0160208091040260200160405190810160405280929190818152602001828054600181600116156101000203166002900480156104605780601f1061043557610100808354040283529160200191610460565b820191906000526020600020905b81548152906001019060200180831161044357829003601f168201915b50505050509150808054600181600116156101000203166002900480601f0160208091040260200160405190810160405280929190818152602001828054600181600116156101000203166002900480156104fc5780601f106104d1576101008083540402835291602001916104fc565b820191906000526020600020905b8154815290600101906020018083116104df57829003601f168201915b50505050509050965096509650965096509650965090919293949596565b6000602052806000526040600020600091509050806000015490806001018054600181600116156101000203166002900480601f0160208091040260200160405190810160405280929190818152602001828054600181600116156101000203166002900480156105cc5780601f106105a1576101008083540402835291602001916105cc565b820191906000526020600020905b8154815290600101906020018083116105af57829003601f168201915b505050505090806002018054600181600116156101000203166002900480601f01602080910402602001604051908101604052809291908181526020018280546001816001161561010002031660029004801561066a5780601f1061063f5761010080835404028352916020019161066a565b820191906000526020600020905b81548152906001019060200180831161064d57829003601f168201915b505050505090806003018054600181600116156101000203166002900480601f0160208091040260200160405190810160405280929190818152602001828054600181600116156101000203166002900480156107085780601f106106dd57610100808354040283529160200191610708565b820191906000526020600020905b8154815290600101906020018083116106eb57829003601f168201915b505050505090806004018054600181600116156101000203166002900480601f0160208091040260200160405190810160405280929190818152602001828054600181600116156101000203166002900480156107a65780601f1061077b576101008083540402835291602001916107a6565b820191906000526020600020905b81548152906001019060200180831161078957829003601f168201915b505050505090806005018054600181600116156101000203166002900480601f0160208091040260200160405190810160405280929190818152602001828054600181600116156101000203166002900480156108445780601f1061081957610100808354040283529160200191610844565b820191906000526020600020905b81548152906001019060200180831161082757829003601f168201915b505050505090806006018054600181600116156101000203166002900480601f0160208091040260200160405190810160405280929190818152602001828054600181600116156101000203166002900480156108e25780601f106108b7576101008083540402835291602001916108e2565b820191906000526020600020905b8154815290600101906020018083116108c557829003601f168201915b5050505050905087565b866000808a815260200190815260200160002060000181905550856000808a8152602001908152602001600020600101908051906020019061092f929190610a0c565b50846000808a81526020019081526020016000206002019080519060200190610959929190610a0c565b50836000808a81526020019081526020016000206003019080519060200190610983929190610a0c565b50826000808a815260200190815260200160002060040190805190602001906109ad929190610a0c565b50816000808a815260200190815260200160002060050190805190602001906109d7929190610a0c565b50806000808a81526020019081526020016000206006019080519060200190610a01929190610a0c565b505050505050505050565b828054600181600116156101000203166002900490600052602060002090601f016020900481019282601f10610a4d57805160ff1916838001178555610a7b565b82800160010185558215610a7b579182015b82811115610a7a578251825591602001919060010190610a5f565b5b509050610a889190610a8c565b5090565b610aae91905b80821115610aaa576000816000905550600101610a92565b5090565b90565b600082601f830112610ac257600080fd5b8135610ad5610ad082610e65565b610e38565b91508082526020830160208301858383011115610af157600080fd5b610afc838284610ec2565b50505092915050565b600081359050610b1481610f15565b92915050565b600060208284031215610b2c57600080fd5b6000610b3a84828501610b05565b91505092915050565b600080600080600080600080610100898b031215610b6057600080fd5b6000610b6e8b828c01610b05565b9850506020610b7f8b828c01610b05565b975050604089013567ffffffffffffffff811115610b9c57600080fd5b610ba88b828c01610ab1565b965050606089013567ffffffffffffffff811115610bc557600080fd5b610bd18b828c01610ab1565b955050608089013567ffffffffffffffff811115610bee57600080fd5b610bfa8b828c01610ab1565b94505060a089013567ffffffffffffffff811115610c1757600080fd5b610c238b828c01610ab1565b93505060c089013567ffffffffffffffff811115610c4057600080fd5b610c4c8b828c01610ab1565b92505060e089013567ffffffffffffffff811115610c6957600080fd5b610c758b828c01610ab1565b9150509295985092959890939650565b6000610c9082610e9c565b610c9a8185610ea7565b9350610caa818560208601610ed1565b610cb381610f04565b840191505092915050565b6000610cc982610e91565b610cd38185610ea7565b9350610ce3818560208601610ed1565b610cec81610f04565b840191505092915050565b610d0081610eb8565b82525050565b600060e082019050610d1b600083018a610cf7565b8181036020830152610d2d8189610c85565b90508181036040830152610d418188610c85565b90508181036060830152610d558187610c85565b90508181036080830152610d698186610c85565b905081810360a0830152610d7d8185610c85565b905081810360c0830152610d918184610c85565b905098975050505050505050565b600060e082019050610db4600083018a610cf7565b8181036020830152610dc68189610cbe565b90508181036040830152610dda8188610cbe565b90508181036060830152610dee8187610cbe565b90508181036080830152610e028186610cbe565b905081810360a0830152610e168185610cbe565b905081810360c0830152610e2a8184610cbe565b905098975050505050505050565b6000604051905081810181811067ffffffffffffffff82111715610e5b57600080fd5b8060405250919050565b600067ffffffffffffffff821115610e7c57600080fd5b601f19601f8301169050602081019050919050565b600081519050919050565b600081519050919050565b600082825260208201905092915050565b6000819050919050565b82818337600083830152505050565b60005b83811015610eef578082015181840152602081019050610ed4565b83811115610efe576000848401525b50505050565b6000601f19601f8301169050919050565b610f1e81610eb8565b8114610f2957600080fd5b5056fea365627a7a723158202d0fa111dce1efedc5d727bbe1280e2af2f91ea817d14a49ab23b543bc8ef6d46c6578706572696d656e74616cf564736f6c63430005100040",
  "source": "//SPDX-License-Identifier: UNLICENSED\npragma solidity >=0.5.0;\n// solidity doesn't yet support 2 levels of dynamic arrays, needed for string[]\npragma experimental ABIEncoderV2;\ncontract Satellites {\n \n\n     struct SatInfo {\n        uint id;\n        string name;\n        // fixed (float numbers) are nut fully supported, convert from string when neccessary fixed256x8\n        string longitude;\n        string latitude;\n        string elevation;\n        string azimuth;\n        string timestamp;\n    }\n    //instant of SatInfo struct, incorrect method\n    // SatInfo sat;\n    // address being account address\n    mapping (uint => SatInfo) public sat;\n    //address[] public \n    // set the satellite contracts current values\n        //function set(string[6] memory satInfo, address _address,uint id_) public {\n\n    function set( uint _address, uint id_, string memory name_ , string memory longitude_, string memory latitude_, string memory elevation_, string memory azimuth_,\n    string memory timestamp_) public {\n        // reorder these in the order presented on track\n        sat[_address].id = id_;\n        sat[_address].name = name_;\n        sat[_address].longitude = longitude_;\n        sat[_address].latitude = latitude_;\n        sat[_address].elevation = elevation_;\n        sat[_address].azimuth = azimuth_;\n        sat[_address].timestamp = timestamp_;\n    }\n    // retrieves a struct of type SatInfo\n    //function get(uint id) view public   returns (SatInfo memory) {\n    function get()  view public  returns (uint , string memory, string memory, \n    string memory, string memory, string memory, string memory) {\n        return ( sat[0].id, sat[0].name, sat[0].latitude,sat[0].latitude,sat[0].elevation,sat[0].azimuth,sat[0].timestamp);\n    }\n}\n",
  "sourcePath": "/Users/jordanlloyd/Satellite/Code/contracts/Satellites.sol",
  "compiler": {
    "name": "solc",
    "version": "0.5.16+commit.9c3226ce.Emscripten.clang"
  },
  "schemaVersion": "3.3.4",
  "updatedAt": "2021-04-10T15:24:08.515Z",
  "networkType": "ethereum",
  "devdoc": {
    "methods": {}
  },
  "userdoc": {
    "methods": {}
  }
}